{"abi":[{"type":"constructor","inputs":[],"stateMutability":"nonpayable"},{"type":"function","name":"addAdmin","inputs":[{"name":"newAdmin","type":"address","internalType":"address"}],"outputs":[],"stateMutability":"nonpayable"},{"type":"function","name":"admins","inputs":[{"name":"","type":"address","internalType":"address"}],"outputs":[{"name":"","type":"bool","internalType":"bool"}],"stateMutability":"view"},{"type":"function","name":"certificates","inputs":[{"name":"","type":"uint256","internalType":"uint256"}],"outputs":[{"name":"id","type":"uint256","internalType":"uint256"},{"name":"studentName","type":"string","internalType":"string"},{"name":"certificateName","type":"string","internalType":"string"},{"name":"year","type":"uint256","internalType":"uint256"},{"name":"score","type":"uint256","internalType":"uint256"},{"name":"student","type":"address","internalType":"address"},{"name":"issuer","type":"address","internalType":"address"},{"name":"valid","type":"bool","internalType":"bool"}],"stateMutability":"view"},{"type":"function","name":"compareStrings","inputs":[{"name":"str1","type":"string","internalType":"string"},{"name":"str2","type":"string","internalType":"string"}],"outputs":[{"name":"","type":"bool","internalType":"bool"}],"stateMutability":"pure"},{"type":"function","name":"getCertificate","inputs":[{"name":"id","type":"uint256","internalType":"uint256"}],"outputs":[{"name":"","type":"tuple","internalType":"struct CertificateRegistry.Certificate","components":[{"name":"id","type":"uint256","internalType":"uint256"},{"name":"studentName","type":"string","internalType":"string"},{"name":"certificateName","type":"string","internalType":"string"},{"name":"year","type":"uint256","internalType":"uint256"},{"name":"score","type":"uint256","internalType":"uint256"},{"name":"student","type":"address","internalType":"address"},{"name":"issuer","type":"address","internalType":"address"},{"name":"valid","type":"bool","internalType":"bool"}]}],"stateMutability":"view"},{"type":"function","name":"getCertificatesByAddress","inputs":[{"name":"student","type":"address","internalType":"address"}],"outputs":[{"name":"","type":"tuple[]","internalType":"struct CertificateRegistry.Certificate[]","components":[{"name":"id","type":"uint256","internalType":"uint256"},{"name":"studentName","type":"string","internalType":"string"},{"name":"certificateName","type":"string","internalType":"string"},{"name":"year","type":"uint256","internalType":"uint256"},{"name":"score","type":"uint256","internalType":"uint256"},{"name":"student","type":"address","internalType":"address"},{"name":"issuer","type":"address","internalType":"address"},{"name":"valid","type":"bool","internalType":"bool"}]}],"stateMutability":"view"},{"type":"function","name":"newCertificate","inputs":[{"name":"student_name","type":"string","internalType":"string"},{"name":"certificate_name","type":"string","internalType":"string"},{"name":"year","type":"uint256","internalType":"uint256"},{"name":"score","type":"uint256","internalType":"uint256"},{"name":"student","type":"address","internalType":"address"}],"outputs":[],"stateMutability":"nonpayable"},{"type":"function","name":"removeAdmin","inputs":[{"name":"admin","type":"address","internalType":"address"}],"outputs":[],"stateMutability":"nonpayable"},{"type":"function","name":"revokeCertificate","inputs":[{"name":"id","type":"uint256","internalType":"uint256"}],"outputs":[],"stateMutability":"nonpayable"},{"type":"function","name":"verifyCertificate","inputs":[{"name":"student_name","type":"string","internalType":"string"},{"name":"certificate_name","type":"string","internalType":"string"}],"outputs":[{"name":"","type":"bool","internalType":"bool"}],"stateMutability":"view"},{"type":"function","name":"verifyCertificateByAddress","inputs":[{"name":"student","type":"address","internalType":"address"},{"name":"certificate_name","type":"string","internalType":"string"}],"outputs":[{"name":"","type":"bool","internalType":"bool"}],"stateMutability":"view"},{"type":"function","name":"x","inputs":[],"outputs":[{"name":"","type":"uint256","internalType":"uint256"}],"stateMutability":"view"},{"type":"event","name":"AdminAdded","inputs":[{"name":"admin","type":"address","indexed":false,"internalType":"address"}],"anonymous":false},{"type":"event","name":"AdminRemoved","inputs":[{"name":"admin","type":"address","indexed":false,"internalType":"address"}],"anonymous":false},{"type":"event","name":"CertificateAdded","inputs":[{"name":"id","type":"uint256","indexed":false,"internalType":"uint256"},{"name":"student_name","type":"string","indexed":false,"internalType":"string"},{"name":"certificate_name","type":"string","indexed":false,"internalType":"string"},{"name":"year","type":"uint256","indexed":false,"internalType":"uint256"},{"name":"score","type":"uint256","indexed":false,"internalType":"uint256"},{"name":"student","type":"address","indexed":false,"internalType":"address"},{"name":"issuer","type":"address","indexed":false,"internalType":"address"}],"anonymous":false},{"type":"event","name":"CertificateRevoked","inputs":[{"name":"id","type":"uint256","indexed":false,"internalType":"uint256"}],"anonymous":false}],"bytecode":{"object":"0x6080604052348015600e575f5ffd5b506001805f3373ffffffffffffffffffffffffffffffffffffffff1673ffffffffffffffffffffffffffffffffffffffff1681526020019081526020015f205f6101000a81548160ff0219169083151502179055506124f3806100705f395ff3fe608060405234801561000f575f5ffd5b50600436106100b2575f3560e01c8063568a92e01161006f578063568a92e01461019c5780635e5c97c6146101cc578063663b3e22146101fc5780637048027514610233578063bed34bba1461024f578063f83be9551461027f576100b2565b806306f5497e146100b65780630c55699c146100d25780631785f53c146100f05780632751f71b1461010c578063429b62e51461013c57806351640fee1461016c575b5f5ffd5b6100d060048036038101906100cb91906116e6565b61029b565b005b6100da6103e0565b6040516100e79190611720565b60405180910390f35b61010a60048036038101906101059190611793565b6103e5565b005b610126600480360381019061012191906118fa565b610585565b604051610133919061198a565b60405180910390f35b61015660048036038101906101519190611793565b610766565b604051610163919061198a565b60405180910390f35b610186600480360381019061018191906116e6565b610783565b6040516101939190611ae4565b60405180910390f35b6101b660048036038101906101b19190611793565b610a07565b6040516101c39190611c73565b60405180910390f35b6101e660048036038101906101e19190611c93565b610e7b565b6040516101f3919061198a565b60405180910390f35b610216600480360381019061021191906116e6565b61101a565b60405161022a989796959493929190611d44565b60405180910390f35b61024d60048036038101906102489190611793565b6111c4565b005b610269600480360381019061026491906118fa565b6113b7565b604051610276919061198a565b60405180910390f35b61029960048036038101906102949190611dce565b6113d1565b005b60015f3373ffffffffffffffffffffffffffffffffffffffff1673ffffffffffffffffffffffffffffffffffffffff1681526020019081526020015f205f9054906101000a900460ff16610324576040517f08c379a000000000000000000000000000000000000000000000000000000000815260040161031b90611eed565b60405180910390fd5b600280549050811061036b576040517f08c379a000000000000000000000000000000000000000000000000000000000815260040161036290611f55565b60405180910390fd5b5f600282815481106103805761037f611f73565b5b905f5260205f20906007020160060160146101000a81548160ff0219169083151502179055507fefa6c5f47ac2523bb4db18032377bf7fdce0fa9d86eddcae1ca9bba38be615d7816040516103d59190611720565b60405180910390a150565b5f5481565b60015f3373ffffffffffffffffffffffffffffffffffffffff1673ffffffffffffffffffffffffffffffffffffffff1681526020019081526020015f205f9054906101000a900460ff1661046e576040517f08c379a000000000000000000000000000000000000000000000000000000000815260040161046590611eed565b60405180910390fd5b60015f8273ffffffffffffffffffffffffffffffffffffffff1673ffffffffffffffffffffffffffffffffffffffff1681526020019081526020015f205f9054906101000a900460ff166104f7576040517f08c379a00000000000000000000000000000000000000000000000000000000081526004016104ee90611fea565b60405180910390fd5b5f60015f8373ffffffffffffffffffffffffffffffffffffffff1673ffffffffffffffffffffffffffffffffffffffff1681526020019081526020015f205f6101000a81548160ff0219169083151502179055507fa3b62bc36326052d97ea62d63c3d60308ed4c3ea8ac079dd8499f1e9c4f80c0f8160405161057a9190612008565b60405180910390a150565b5f5f5f90505b60028054905081101561075b5761064b600282815481106105af576105ae611f73565b5b905f5260205f20906007020160010180546105c99061204e565b80601f01602080910402602001604051908101604052809291908181526020018280546105f59061204e565b80156106405780601f1061061757610100808354040283529160200191610640565b820191905f5260205f20905b81548152906001019060200180831161062357829003601f168201915b5050505050856113b7565b801561070657506107056002828154811061066957610668611f73565b5b905f5260205f20906007020160020180546106839061204e565b80601f01602080910402602001604051908101604052809291908181526020018280546106af9061204e565b80156106fa5780601f106106d1576101008083540402835291602001916106fa565b820191905f5260205f20905b8154815290600101906020018083116106dd57829003601f168201915b5050505050846113b7565b5b801561073f57506002818154811061072157610720611f73565b5b905f5260205f20906007020160060160149054906101000a900460ff165b1561074e576001915050610760565b808060010191505061058b565b505f90505b92915050565b6001602052805f5260405f205f915054906101000a900460ff1681565b61078b611635565b60028054905082106107d2576040517f08c379a00000000000000000000000000000000000000000000000000000000081526004016107c990611f55565b60405180910390fd5b600282815481106107e6576107e5611f73565b5b905f5260205f209060070201604051806101000160405290815f82015481526020016001820180546108179061204e565b80601f01602080910402602001604051908101604052809291908181526020018280546108439061204e565b801561088e5780601f106108655761010080835404028352916020019161088e565b820191905f5260205f20905b81548152906001019060200180831161087157829003601f168201915b505050505081526020016002820180546108a79061204e565b80601f01602080910402602001604051908101604052809291908181526020018280546108d39061204e565b801561091e5780601f106108f55761010080835404028352916020019161091e565b820191905f5260205f20905b81548152906001019060200180831161090157829003601f168201915b505050505081526020016003820154815260200160048201548152602001600582015f9054906101000a900473ffffffffffffffffffffffffffffffffffffffff1673ffffffffffffffffffffffffffffffffffffffff1673ffffffffffffffffffffffffffffffffffffffff168152602001600682015f9054906101000a900473ffffffffffffffffffffffffffffffffffffffff1673ffffffffffffffffffffffffffffffffffffffff1673ffffffffffffffffffffffffffffffffffffffff1681526020016006820160149054906101000a900460ff1615151515815250509050919050565b60605f5f90505f5f90505b600280549050811015610aea578373ffffffffffffffffffffffffffffffffffffffff1660028281548110610a4a57610a49611f73565b5b905f5260205f2090600702016005015f9054906101000a900473ffffffffffffffffffffffffffffffffffffffff1673ffffffffffffffffffffffffffffffffffffffff16148015610ac9575060028181548110610aab57610aaa611f73565b5b905f5260205f20906007020160060160149054906101000a900460ff165b15610add578180610ad9906120ab565b9250505b8080600101915050610a12565b505f8167ffffffffffffffff811115610b0657610b056117d6565b5b604051908082528060200260200182016040528015610b3f57816020015b610b2c611635565b815260200190600190039081610b245790505b5090505f5f90505f5f90505b600280549050811015610e6f578573ffffffffffffffffffffffffffffffffffffffff1660028281548110610b8357610b82611f73565b5b905f5260205f2090600702016005015f9054906101000a900473ffffffffffffffffffffffffffffffffffffffff1673ffffffffffffffffffffffffffffffffffffffff16148015610c02575060028181548110610be457610be3611f73565b5b905f5260205f20906007020160060160149054906101000a900460ff165b15610e625760028181548110610c1b57610c1a611f73565b5b905f5260205f209060070201604051806101000160405290815f8201548152602001600182018054610c4c9061204e565b80601f0160208091040260200160405190810160405280929190818152602001828054610c789061204e565b8015610cc35780601f10610c9a57610100808354040283529160200191610cc3565b820191905f5260205f20905b815481529060010190602001808311610ca657829003601f168201915b50505050508152602001600282018054610cdc9061204e565b80601f0160208091040260200160405190810160405280929190818152602001828054610d089061204e565b8015610d535780601f10610d2a57610100808354040283529160200191610d53565b820191905f5260205f20905b815481529060010190602001808311610d3657829003601f168201915b505050505081526020016003820154815260200160048201548152602001600582015f9054906101000a900473ffffffffffffffffffffffffffffffffffffffff1673ffffffffffffffffffffffffffffffffffffffff1673ffffffffffffffffffffffffffffffffffffffff168152602001600682015f9054906101000a900473ffffffffffffffffffffffffffffffffffffffff1673ffffffffffffffffffffffffffffffffffffffff1673ffffffffffffffffffffffffffffffffffffffff1681526020016006820160149054906101000a900460ff161515151581525050838381518110610e4857610e47611f73565b5b60200260200101819052508180610e5e906120ab565b9250505b8080600101915050610b4b565b50819350505050919050565b5f5f5f90505b60028054905081101561100f578373ffffffffffffffffffffffffffffffffffffffff1660028281548110610eb957610eb8611f73565b5b905f5260205f2090600702016005015f9054906101000a900473ffffffffffffffffffffffffffffffffffffffff1673ffffffffffffffffffffffffffffffffffffffff16148015610fba5750610fb960028281548110610f1d57610f1c611f73565b5b905f5260205f2090600702016002018054610f379061204e565b80601f0160208091040260200160405190810160405280929190818152602001828054610f639061204e565b8015610fae5780601f10610f8557610100808354040283529160200191610fae565b820191905f5260205f20905b815481529060010190602001808311610f9157829003601f168201915b5050505050846113b7565b5b8015610ff3575060028181548110610fd557610fd4611f73565b5b905f5260205f20906007020160060160149054906101000a900460ff165b15611002576001915050611014565b8080600101915050610e81565b505f90505b92915050565b60028181548110611029575f80fd5b905f5260205f2090600702015f91509050805f01549080600101805461104e9061204e565b80601f016020809104026020016040519081016040528092919081815260200182805461107a9061204e565b80156110c55780601f1061109c576101008083540402835291602001916110c5565b820191905f5260205f20905b8154815290600101906020018083116110a857829003601f168201915b5050505050908060020180546110da9061204e565b80601f01602080910402602001604051908101604052809291908181526020018280546111069061204e565b80156111515780601f1061112857610100808354040283529160200191611151565b820191905f5260205f20905b81548152906001019060200180831161113457829003601f168201915b505050505090806003015490806004015490806005015f9054906101000a900473ffffffffffffffffffffffffffffffffffffffff1690806006015f9054906101000a900473ffffffffffffffffffffffffffffffffffffffff16908060060160149054906101000a900460ff16905088565b60015f3373ffffffffffffffffffffffffffffffffffffffff1673ffffffffffffffffffffffffffffffffffffffff1681526020019081526020015f205f9054906101000a900460ff1661124d576040517f08c379a000000000000000000000000000000000000000000000000000000000815260040161124490611eed565b60405180910390fd5b5f73ffffffffffffffffffffffffffffffffffffffff168173ffffffffffffffffffffffffffffffffffffffff16036112bb576040517f08c379a00000000000000000000000000000000000000000000000000000000081526004016112b29061213c565b60405180910390fd5b3373ffffffffffffffffffffffffffffffffffffffff168173ffffffffffffffffffffffffffffffffffffffff1603611329576040517f08c379a0000000000000000000000000000000000000000000000000000000008152600401611320906121a4565b60405180910390fd5b6001805f8373ffffffffffffffffffffffffffffffffffffffff1673ffffffffffffffffffffffffffffffffffffffff1681526020019081526020015f205f6101000a81548160ff0219169083151502179055507f44d6d25963f097ad14f29f06854a01f575648a1ef82f30e562ccd3889717e339816040516113ac9190612008565b60405180910390a150565b5f8180519060200120838051906020012014905092915050565b60015f3373ffffffffffffffffffffffffffffffffffffffff1673ffffffffffffffffffffffffffffffffffffffff1681526020019081526020015f205f9054906101000a900460ff1661145a576040517f08c379a000000000000000000000000000000000000000000000000000000000815260040161145190611eed565b60405180910390fd5b5f600280549050905060026040518061010001604052808381526020018881526020018781526020018681526020018581526020018473ffffffffffffffffffffffffffffffffffffffff1681526020013373ffffffffffffffffffffffffffffffffffffffff16815260200160011515815250908060018154018082558091505060019003905f5260205f2090600702015f909190919091505f820151815f015560208201518160010190816115119190612373565b5060408201518160020190816115279190612373565b50606082015181600301556080820151816004015560a0820151816005015f6101000a81548173ffffffffffffffffffffffffffffffffffffffff021916908373ffffffffffffffffffffffffffffffffffffffff16021790555060c0820151816006015f6101000a81548173ffffffffffffffffffffffffffffffffffffffff021916908373ffffffffffffffffffffffffffffffffffffffff16021790555060e08201518160060160146101000a81548160ff02191690831515021790555050507f32eaef9fd219bbc1d965e6ce527c048489058076f60cc777580443a6e47a57f5818787878787336040516116259796959493929190612442565b60405180910390a1505050505050565b6040518061010001604052805f815260200160608152602001606081526020015f81526020015f81526020015f73ffffffffffffffffffffffffffffffffffffffff1681526020015f73ffffffffffffffffffffffffffffffffffffffff1681526020015f151581525090565b5f604051905090565b5f5ffd5b5f5ffd5b5f819050919050565b6116c5816116b3565b81146116cf575f5ffd5b50565b5f813590506116e0816116bc565b92915050565b5f602082840312156116fb576116fa6116ab565b5b5f611708848285016116d2565b91505092915050565b61171a816116b3565b82525050565b5f6020820190506117335f830184611711565b92915050565b5f73ffffffffffffffffffffffffffffffffffffffff82169050919050565b5f61176282611739565b9050919050565b61177281611758565b811461177c575f5ffd5b50565b5f8135905061178d81611769565b92915050565b5f602082840312156117a8576117a76116ab565b5b5f6117b58482850161177f565b91505092915050565b5f5ffd5b5f5ffd5b5f601f19601f8301169050919050565b7f4e487b71000000000000000000000000000000000000000000000000000000005f52604160045260245ffd5b61180c826117c6565b810181811067ffffffffffffffff8211171561182b5761182a6117d6565b5b80604052505050565b5f61183d6116a2565b90506118498282611803565b919050565b5f67ffffffffffffffff821115611868576118676117d6565b5b611871826117c6565b9050602081019050919050565b828183375f83830152505050565b5f61189e6118998461184e565b611834565b9050828152602081018484840111156118ba576118b96117c2565b5b6118c584828561187e565b509392505050565b5f82601f8301126118e1576118e06117be565b5b81356118f184826020860161188c565b91505092915050565b5f5f604083850312156119105761190f6116ab565b5b5f83013567ffffffffffffffff81111561192d5761192c6116af565b5b611939858286016118cd565b925050602083013567ffffffffffffffff81111561195a576119596116af565b5b611966858286016118cd565b9150509250929050565b5f8115159050919050565b61198481611970565b82525050565b5f60208201905061199d5f83018461197b565b92915050565b6119ac816116b3565b82525050565b5f81519050919050565b5f82825260208201905092915050565b8281835e5f83830152505050565b5f6119e4826119b2565b6119ee81856119bc565b93506119fe8185602086016119cc565b611a07816117c6565b840191505092915050565b611a1b81611758565b82525050565b611a2a81611970565b82525050565b5f61010083015f830151611a465f8601826119a3565b5060208301518482036020860152611a5e82826119da565b91505060408301518482036040860152611a7882826119da565b9150506060830151611a8d60608601826119a3565b506080830151611aa060808601826119a3565b5060a0830151611ab360a0860182611a12565b5060c0830151611ac660c0860182611a12565b5060e0830151611ad960e0860182611a21565b508091505092915050565b5f6020820190508181035f830152611afc8184611a30565b905092915050565b5f81519050919050565b5f82825260208201905092915050565b5f819050602082019050919050565b5f61010083015f830151611b435f8601826119a3565b5060208301518482036020860152611b5b82826119da565b91505060408301518482036040860152611b7582826119da565b9150506060830151611b8a60608601826119a3565b506080830151611b9d60808601826119a3565b5060a0830151611bb060a0860182611a12565b5060c0830151611bc360c0860182611a12565b5060e0830151611bd660e0860182611a21565b508091505092915050565b5f611bec8383611b2d565b905092915050565b5f602082019050919050565b5f611c0a82611b04565b611c148185611b0e565b935083602082028501611c2685611b1e565b805f5b85811015611c615784840389528151611c428582611be1565b9450611c4d83611bf4565b925060208a01995050600181019050611c29565b50829750879550505050505092915050565b5f6020820190508181035f830152611c8b8184611c00565b905092915050565b5f5f60408385031215611ca957611ca86116ab565b5b5f611cb68582860161177f565b925050602083013567ffffffffffffffff811115611cd757611cd66116af565b5b611ce3858286016118cd565b9150509250929050565b5f82825260208201905092915050565b5f611d07826119b2565b611d118185611ced565b9350611d218185602086016119cc565b611d2a816117c6565b840191505092915050565b611d3e81611758565b82525050565b5f61010082019050611d585f83018b611711565b8181036020830152611d6a818a611cfd565b90508181036040830152611d7e8189611cfd565b9050611d8d6060830188611711565b611d9a6080830187611711565b611da760a0830186611d35565b611db460c0830185611d35565b611dc160e083018461197b565b9998505050505050505050565b5f5f5f5f5f60a08688031215611de757611de66116ab565b5b5f86013567ffffffffffffffff811115611e0457611e036116af565b5b611e10888289016118cd565b955050602086013567ffffffffffffffff811115611e3157611e306116af565b5b611e3d888289016118cd565b9450506040611e4e888289016116d2565b9350506060611e5f888289016116d2565b9250506080611e708882890161177f565b9150509295509295909350565b7f4f6e6c792061646d696e732063616e20706572666f726d2074686973206163745f8201527f696f6e0000000000000000000000000000000000000000000000000000000000602082015250565b5f611ed7602383611ced565b9150611ee282611e7d565b604082019050919050565b5f6020820190508181035f830152611f0481611ecb565b9050919050565b7f4365727469666963617465206e6f7420666f756e6400000000000000000000005f82015250565b5f611f3f601583611ced565b9150611f4a82611f0b565b602082019050919050565b5f6020820190508181035f830152611f6c81611f33565b9050919050565b7f4e487b71000000000000000000000000000000000000000000000000000000005f52603260045260245ffd5b7f41646d696e206e6f7420666f756e6400000000000000000000000000000000005f82015250565b5f611fd4600f83611ced565b9150611fdf82611fa0565b602082019050919050565b5f6020820190508181035f83015261200181611fc8565b9050919050565b5f60208201905061201b5f830184611d35565b92915050565b7f4e487b71000000000000000000000000000000000000000000000000000000005f52602260045260245ffd5b5f600282049050600182168061206557607f821691505b60208210810361207857612077612021565b5b50919050565b7f4e487b71000000000000000000000000000000000000000000000000000000005f52601160045260245ffd5b5f6120b5826116b3565b91507fffffffffffffffffffffffffffffffffffffffffffffffffffffffffffffffff82036120e7576120e661207e565b5b600182019050919050565b7f496e76616c6964206164647265737300000000000000000000000000000000005f82015250565b5f612126600f83611ced565b9150612131826120f2565b602082019050919050565b5f6020820190508181035f8301526121538161211a565b9050919050565b7f43616e6e6f742061646420796f757273656c662061732061646d696e000000005f82015250565b5f61218e601c83611ced565b91506121998261215a565b602082019050919050565b5f6020820190508181035f8301526121bb81612182565b9050919050565b5f819050815f5260205f209050919050565b5f6020601f8301049050919050565b5f82821b905092915050565b5f6008830261221e7fffffffffffffffffffffffffffffffffffffffffffffffffffffffffffffffff826121e3565b61222886836121e3565b95508019841693508086168417925050509392505050565b5f819050919050565b5f61226361225e612259846116b3565b612240565b6116b3565b9050919050565b5f819050919050565b61227c83612249565b6122906122888261226a565b8484546121ef565b825550505050565b5f5f905090565b6122a7612298565b6122b2818484612273565b505050565b5f5b828110156122d8576122cd5f82840161229f565b6001810190506122b9565b505050565b601f82111561232b578282111561232a576122f7816121c2565b612300836121d4565b612309856121d4565b6020861015612316575f90505b808301612325828403826122b7565b505050505b5b505050565b5f82821c905092915050565b5f61234b5f1984600802612330565b1980831691505092915050565b5f612363838361233c565b9150826002028217905092915050565b61237c826119b2565b67ffffffffffffffff811115612395576123946117d6565b5b61239f825461204e565b6123aa8282856122dd565b5f60209050601f8311600181146123db575f84156123c9578287015190505b6123d38582612358565b86555061243a565b601f1984166123e9866121c2565b5f5b82811015612410578489015182556001820191506020850194506020810190506123eb565b8683101561242d5784890151612429601f89168261233c565b8355505b6001600288020188555050505b505050505050565b5f60e0820190506124555f83018a611711565b81810360208301526124678189611cfd565b9050818103604083015261247b8188611cfd565b905061248a6060830187611711565b6124976080830186611711565b6124a460a0830185611d35565b6124b160c0830184611d35565b9897505050505050505056fea2646970667358221220a1375945f0140c05753d5bc1d8006ab90374319d80b78eb5fec761093d7be21b64736f6c63430008210033","linkReferences":{}},"methodIdentifiers":{"addAdmin(address)":"70480275","admins(address)":"429b62e5","certificates(uint256)":"663b3e22","compareStrings(string,string)":"bed34bba","getCertificate(uint256)":"51640fee","getCertificatesByAddress(address)":"568a92e0","newCertificate(string,string,uint256,uint256,address)":"f83be955","removeAdmin(address)":"1785f53c","revokeCertificate(uint256)":"06f5497e","verifyCertificate(string,string)":"2751f71b","verifyCertificateByAddress(address,string)":"5e5c97c6","x()":"0c55699c"},"id":0}